:100000000C945C000C9479000C9479000C947900A9
:100010000C9479000C9479000C9479000C9479007C
:100020000C9479000C9479000C9479000C9479006C
:100030000C9479000C9479000C9479000C9479005C
:100040000C94EC000C9479000C9479000C947900D9
:100050000C9479000C9479000C9479000C9479003C
:100060000C9479000C947900000000002400270013
:100070002A0000000000250028002B0004040404CE
:100080000404040402020202020203030303030342
:10009000010204081020408001020408102001021F
:1000A00004081020000000080002010000030407FB
:1000B000000000000000000011241FBECFEFD8E0B8
:1000C000DEBFCDBF11E0A0E0B1E0EAEEF3E002C098
:1000D00005900D92AC34B107D9F721E0ACE4B1E062
:1000E00001C01D92A535B207E1F70E9436010C94BC
:1000F000F3010C94000090E0FC01EC55FF4F2491BB
:10010000FC01E057FF4F3491FC01E458FF4FE491AC
:10011000EE23C9F0222339F0233001F1A8F4213075
:1001200019F1223029F1F0E0EE0FFF1FEE58FF4FDA
:10013000A591B4918FB7F894EC91611126C03095D8
:100140003E233C938FBF08952730A9F02830C9F093
:10015000243049F7809180008F7D03C0809180001A
:100160008F7780938000DFCF84B58F7784BDDBCF1E
:1001700084B58F7DFBCF8091B0008F778093B000E6
:10018000D2CF8091B0008F7DF9CF3E2BDACF3FB731
:10019000F8948091510190915201A0915301B09136
:1001A000540126B5A89B05C02F3F19F00196A11D4B
:1001B000B11D3FBFBA2FA92F982F8827BC01CD01B1
:1001C000620F711D811D911D42E0660F771F881F10
:1001D000991F4A95D1F708951F920F920FB60F926B
:1001E00011242F933F938F939F93AF93BF9380914D
:1001F0004D0190914E01A0914F01B091500130916D
:100200004C0123E0230F2D3758F50196A11DB11D98
:1002100020934C0180934D0190934E01A0934F0188
:10022000B09350018091510190915201A0915301DE
:10023000B09154010196A11DB11D8093510190937D
:100240005201A0935301B0935401BF91AF919F917C
:100250008F913F912F910F900FBE0F901F90189587
:1002600026E8230F0296A11DB11DD2CF789484B544
:10027000826084BD84B5816084BD85B5826085BDA2
:1002800085B5816085BD80916E00816080936E0030
:100290001092810080918100826080938100809122
:1002A00081008160809381008091800081608093D3
:1002B00080008091B10084608093B1008091B00093
:1002C00081608093B00080917A00846080937A008E
:1002D00080917A00826080937A0080917A008160B8
:1002E00080937A0080917A00806880937A001092DF
:1002F000C10020E131E0A0E0B1E08D919D9199270E
:10030000FC01E057FF4F449184589F4FFC018491BA
:10031000882399F090E0880F991FFC01E859FF4F5E
:10032000C591D491FC01EE58FF4F859194918FB700
:10033000F894E881E42BE8838FBF2A173B07E9F69E
:1003400001E311E0F1E00C341F0709F447C0D801C4
:10035000ED918D01F0E0E05FFE4FE08090E0C92E6E
:1003600091E0D92ED0E0C0E0F12CF6018081F2E0DE
:10037000CF0ED11CB7010C2E02C0759567950A945B
:10038000E2F761700E947B002196C830D10569F7C1
:100390000E94C7004B015C0188EEC82E83E0D82E76
:1003A000E12CF12C0E94C700681979098A099B0980
:1003B000683E734081059105A8F381E0C81AD10811
:1003C000E108F10898EE890E93E0991EA11CB11C7A
:1003D000C114D104E104F10429F7B4CF60E087E04F
:0A03E0000E947B00FFCFF894FFCFCE
:1003EA0000000100020003000400050006000700E7
:1003FA003F065B4F666D7D077F6F5F777C58395E7E
:10040A007B79713D74761F387333783E1C6E0840D1
:10041A00801D001B1E0419031E1A15031E03170351
:0C042A000D1E071F0503131E13000F20FA
:00000001FF
